:100000000C942A000C943F000C943F000C943F0089
:100010000C943F000C943F000C943F000C943F0064
:100020000C943F000C943F000C943F000C943F0054
:100030000C943F000C943F000C943F000C943F0044
:100040000C943F000C943F000C943F000C943F0034
:100050000C943F0011241FBECFE5D8E0DEBFCDBF1A
:1000600010E0A0E6B0E0ECEEF1E002C005900D92E9
:10007000A837B107D9F70E94A5000C94F4000C949E
:100080000000A62FB72FC42FD52FE82FF92F2C91C2
:100090003881230F2083A395C395E39550E058BB87
:1000A00053952C913881230F241F2083A395C3954A
:1000B000E3954FB741705F3391F708959F7090BDFE
:1000C00089B9089586E880BD08958AB188618AB9A2
:1000D00008958AB1877E8AB908958BB185FB8827F8
:1000E00080F991E0892708958BB18095881F882732
:1000F000881F08955D9BFECF8CB90895FC019191F6
:10010000992321F05D9BFECF9CB9F9CF0895282F4C
:10011000FC018E2F821B861728F45D9BFECF8191F8
:100120008CB9F7CF08955F9BFECF2CB1FC012083E3
:100130000895282FFC018E2F821B861728F45F9BC1
:10014000FECF8CB18193F7CF0895CF93DF93CDB7D6
:10015000DEB7C05CD1090FB6F894DEBF0FBECDBFCD
:100160008FEF84BB80E090E00E945E000E946200FE
:100170000E946500FE0131968E010F5B1F4F7F01CB
:100180001192E017F107E1F780E690E00E947E000F
:1001900060E4CE018F579F4F0E9499008FE690E058
:1001A0000E947E0060E4CE018F579F4F0E9487001F
:1001B00060E4C8010E94990082E790E00E947E00FE
:1001C00060E4C8010E948700A801BE016F577F4FFD
:1001D000C7010E94410085E790E00E947E0060E434
:0C01E000C7010E948700D0CFF894FFCF29
:1001EC0048656C6C6F20576F726C6421200A00613B
:0801FC003D00623D00633D007F
:00000001FF
